:020000040800F2
:10000000000002201D4A0008210700082D070008F3
:10001000350700083D0700084507000800000000FC
:100020000000000000000000000000004D07000874
:100030005907000800000000650700087107000864
:10004000694A0008694A0008694A0008694A0008C4
:10005000694A0008694A0008694A0008694A0008B4
:10006000694A0008694A0008694A0008694A0008A4
:10007000694A0008694A0008694A0008694A000894
:10008000694A0008694A0008694A0008694A000884
:10009000694A0008694A0008694A0008694A000874
:1000A000694A0008694A0008694A0008694A000864
:1000B000694A0008B9020008694A0008694A00084C
:1000C000694A0008694A0008694A0008694A000844
:1000D000694A0008694A0008694A00088511000851
:1000E000694A0008694A0008694A0008694A000824
:1000F000694A0008694A0008694A0008694A000814
:10010000694A0008694A0008A50B0008694A000806
:10011000694A0008694A0008694A0008694A0008F3
:10012000694A0008694A0008694A0008694A0008E3
:10013000694A0008694A0008694A0008694A0008D3
:10014000694A0008694A0008694A0008694A0008C3
:10015000694A0008694A0008694A0008694A0008B3
:10016000694A0008694A0008694A0008694A0008A3
:10017000694A0008694A0008694A0008694A000893
:08018000694A0008694A000801
:1001880010B5054C237833B9044B13B10448AFF3C9
:1001980000800123237010BD2C0A002000000000FD
:1001A80098A4000808B5064B1BB106480649AFF3EA
:1001B80000800648036813B1054B03B1984708BD92
:1001C8000000000098A40008300A0020280A002037
:1001D8000000000016202EA1ABBE2D4801680029A2
:1001E80001D1324901608168C268002900D08D467A
:1001F800002A01D002F5807A00218B460F46254857
:10020800254A121A04F066FC09F056FA152025A1B1
:10021800ABBE2449002001B40B780131002B15D066
:10022800202BF9D0222B01D0272B01D11A0001E075
:100238002022013902B401300B780131002B05D09E
:100248009A42F9D100224B1E1A70E5E7694602006E
:1002580092006A446B469A4206D9043A14681D68AB
:1002680015601C600433F6E76C460725AC43A546C9
:1002780004000D000948002802D0094805F0B6FF1F
:1002880004F000FC2000290000F078F804F0EAFBF4
:10029800040000202C0A0020EC0B0020F561000867
:1002A8008971000814000020FF000000EC0B0020FA
:1002B80080B584B000AF00F039FD87ED030A6C20EB
:1002C80000F094FB0346184600F0ACFBF0EE407AD1
:1002D800B0EE670A00F0CCFB87ED020A2148012145
:1002E80002F014FF0346002B39D01F484FF4005189
:1002F80002F0F0F81D4BD3ED007A1D48B0EE670A06
:10030800D7ED030A00F0F8FF87ED010A194897EDC9
:10031800010AD7ED020A00F0EFFF87ED000A97ED1A
:10032800007ADFED157A67EE277AC7ED007AD7ED08
:10033800007AF5EEC07AF1EE10FA08D5D7ED007A1A
:10034800F1EE677AB0EE670A00F028FE03E097ED59
:10035800000A00F0F3FD0348012102F0E3FE103724
:10036800BD4680BD00040040000C0240840B002004
:10037800500B00208C0B00200000C84280B586B0CE
:1003880000AF00F03DFF00F09DF800F099FB00F091
:1003980043FE00F02DFD00F067F800F099FA2848B8
:1003A80001F06CFE27489FED280ADFED280AB7EE1A
:1003B800001AFFEE001AB7EE002ADFED252A00F03A
:1003C8005BFF4FF000037B614FF000033B61214866
:1003D800012102F05FF80346002B0BD01E4B1F4A89
:1003E8001A601F484FF4004102F068F84FF07E533E
:1003F8003B610AE0184B1B4A1A6019484FF4004148
:1004080002F05EF84FF000033B616C2000F0EEFA5A
:100418000346FB81FB89184600F004FB87ED020ABE
:1004280097ED020A00F024FB87ED010A00F07EFC3C
:1004380087ED050A97ED010A00F080FEC7E700BFC7
:10044800002001408C0B00204A28673F34B77C3DD0
:100458000AD7233C00000240840B002000401C46C1
:10046800000C024000409C4680B582B000AF0920D5
:10047800012101F00FFC01233B6000233B710323A2
:100488007B710023BB710023FB713B460B48194667
:1004980001F084FF4FF470433B6001233B71032359
:1004A8007B710023BB710123FB713B46044819464D
:1004B80001F074FF0837BD4680BD00BF0000024050
:1004C800000C024080B500AF154B154AD2F88820C1
:1004D80042F47002C3F88820124B124A126842F0A4
:1004E80001021A600F4B00229A600E4A0D4B1B68DE
:1004F80023F0847323F4803313600A4B0A4A5A604A
:10050800084B084A126822F480221A60054B002220
:10051800DA6000F087F8024B4FF000629A6080BD05
:1005280000ED00E0003802401030002480B487B0AD
:1005380000AF00233B6100237B610223FB600023A3
:10054800BB6002237B60324B9B6803F00C033B616A
:100558003B69042B07D0082B09D0002B3FD12D4B2A
:100568002D4A1A603FE02B4B2C4A1A603BE0284B7F
:100578005B6803F480039B0DBB60254B5B6803F04D
:100588003F037B60BB68002B0DD0244A7B68B2FB1D
:10059800F3F21F4B596847F6C0730B409B0903FBE6
:1005A80002F37B610CE01C4A7B68B2FBF3F2184B48
:1005B800596847F6C0730B409B0903FB02F37B6144
:1005C800134B5B6803F440331B0C01335B00FB6087
:1005D8007A69FB68B2FBF3F20E4B1A6003E00D4B2D
:1005E8000D4A1A6000BF0A4B9B6803F0F0031B0911
:1005F8000B4AD35CDBB23B61064B1A683B69DA40B5
:10060800044B1A601C37BD465DF8047B704700BF79
:1006180000380240140100200024F40040787D01D5
:100628001801002080B483B000AF00237B60002352
:100638003B60354B344A126842F480321A60324BC0
:100648001B6803F400333B607B6801337B603B68C5
:10065800002B03D17B68B3F5A06FF0D12A4B1B6840
:1006680003F40033002B02D001233B6001E0002398
:100678003B603B68012B42D1234B234A126C42F06A
:1006880080521A64214B214A126842F480421A604F
:100698001D4B1D4A92689A601B4B1B4A926842F494
:1006A80000429A60184B184A926842F4A0529A6025
:1006B800154B174A5A60144B134A126842F080725D
:1006C8001A6000BF104B1B6803F00073002BF9D0B1
:1006D800104B40F205621A600B4B0B4A926822F0ED
:1006E80003029A60084B084A926842F002029A6034
:1006F80000BF054B9B6803F00C03082BF9D10C379E
:10070800BD465DF8047B7047003802400070004029
:1007180008544007003C024080B400AFBD465DF875
:10072800047B704780B400AFFEE700BF80B400AF21
:10073800FEE700BF80B400AFFEE700BF80B400AFA3
:10074800FEE700BF80B400AFBD465DF8047B70478C
:1007580080B400AFBD465DF8047B704780B400AF3D
:10076800BD465DF8047B704780B400AFBD465DF8B8
:10077800047B704780B58AB000AF0220012101F0E8
:10078800B3FA0120012101F085FAC0237B6102231D
:100798003B7603237B760023BB760123FB7607F1A8
:1007A80014033148194601F0F9FD2F4806210222A9
:1007B80001F094FE2C480721022201F08FFE1B2332
:1007C800BB832A4B4EF65F221A80284B1B883B625C
:1007D8000023BB840023FB8307F11C03244819462C
:1007E80001F07AFF234B93ED007ADFED237A87EE51
:1007F800277A1E4B1B88013306EE903AF8EEE67A0C
:1008080067EE277AFCEEE77A17EE903A9AB21B4B1E
:100818001A8060233B8001237B80184B1B88BB60B8
:100828000023BB813B461248194602F011F81048D4
:10083800082102F08FF901237B80104B1B88BB60D5
:100848003B460B48194602F04FF80948082102F0C8
:1008580089F90748012101F0C7FF0548012101F086
:10086800E9FF2837BD4680BD00000240480A002045
:1008780000040040280100200000C8424A0A002065
:1008880080B483B000AF87ED010A97ED017ADFED00
:100898000C7A87EE277A0B4B1B88013306EE903AC9
:1008A800F8EEE67A67EE277AFCEEE77A17EE903AEA
:1008B8009AB2054B1A800C37BD465DF8047B704729
:1008C8000000C842480A00204A0A00200000000030
:1008D80080B59CB000AF3F48012101F0DBF94FF42F
:1008E8008070012101F00EFA0023FB600023BB6138
:1008F8000223FB614FF480733B63374B7B614FF4FA
:100908000053FB624FF480637B6200233B64334BEC
:100918003B614FF40063BB6200233B6200237B64AE
:100928004FF400337B630023BB630123FB6307F1B0
:100938000C032B48194600F003FF2948012100F059
:1009480047FF06237B6003233B720023FB723B1D9A
:100958002448194601F022FD0023BB640023FB64F0
:1009680000233B6500237B6507F14803184601F027
:10097800EBFA0023BB65012387F85C30012387F875
:100988005D3000233B660023BB66022387F86C308A
:1009980007F158031448194601F0A2FA1248012138
:1009A8000122002301F024FB0F4802210222002328
:1009B80001F01EFB0C48012101F0A4FB0A480121AB
:1009C80001F096FB0848012101F0DAFA7037BD46BC
:1009D80080BD00BF01004000880B00204C20014072
:1009E80010640240000002400020014080B485B03D
:1009F80000AF0346FB71FB796C2B02D0722B04D03D
:100A080007E0074B1B88FB8103E0054B5B88FB81F4
:100A180000BFFB8918461437BD465DF8047B704754
:100A2800880B002080B584B000AF0346FB80FB88AC
:100A3800184602F0F9FF02460B46104619460AA36B
:100A4800D3E9002303F056F802460B461046194630
:100A580003F062FA0346FB60FB6807EE903AB0EEDB
:100A6800670A1037BD4680BDC02DFDF113AC473F66
:100A780080B584B000AF87ED010A00F0E9F80346BD
:100A8800002B02D00C4BFB6002E04FF07E53FB6062
:100A980097ED037AD7ED017A27EE277AF7EE0C7AED
:100AA80067EE277AC7ED027ABB6807EE903AB0EE98
:100AB800670A1037BD4680BD000080BFAFF30080D5
:100AC80080B586B000AF0220012101F0E3F80420D0
:100AD800012101F009F9C0233B6102233B7503237F
:100AE8007B750123FB7507F110032748194601F0B0
:100AF80055FC25480621022201F0F0FC2248072176
:100B0800022201F0EBFC214801210022002302F01F
:100B1800E5FB1E484FF6FF7101F042FE1B4801211C
:100B280001F088FE0820012101F0DEF8184B1A6850
:100B3800184BA3FB0213DB0C9BB2013B9BB2BB809F
:100B480047F22F53BB600023BB810023FB803B1D72
:100B58001148194601F0C0FD32233B700123FB7098
:100B680001237B700123BB703B46184600F084FCD0
:100B780009480121012202F0B3FA0748012101F0D6
:100B880059FE1837BD4680BD0004024000080040E9
:100B980014010020819F5E16000C004080B500AF54
:100BA8002048012102F0B2FA0346002B39D01E4B2F
:100BB8001A881E4B1A801E4B1A881E4B1A8000F08A
:100BC8003BF803461A461A4B1A801A4B1A88184BD8
:100BD8001B889A420BD9164B1A88164B1B88D31AB6
:100BE8009BB2013B9BB29AB20F4B1A8008E0104BA4
:100BF8001A88104B1B88D31A9BB29AB20A4B1A80D8
:100C080000F026F80346002B07D0074B1B889BB241
:100C180001339BB29AB2044B1A800248012102F0B8
:100C280081FA80BD000C0040500A0020520A0020C2
:100C38004E0A00204C0A002080B500AF034801F09E
:100C4800B1FD03469BB2184680BD00BF00080040B6
:100C580080B400AF054B1B889BB2DBB203F01003D6
:100C6800DBB21846BD465DF8047B704700080040BB
:100C780080B400AF0F4B1B8806EE903AB8EE667A48
:100C8800DFED0D7A87EE277A0A4B1B889B0A9BB209
:100C9800DBB206EE903AF8EEE67A37EE677ADFEDE9
:100CA800077A67EE277AB0EE670ABD465DF8047BDF
:100CB800704700BF4E0A0020000080440000B44383
:100CC80080B500AF164B1B881BB207EE903AB8EE02
:100CD800E77ADFED147A87EE277ADFED137A67EE8D
:100CE800277A17EE900A02F0B1FE02460B4610462C
:100CF800194609A3D3E9002302F0FCFE02460B467D
:100D08001046194603F008F9034607EE903AB0EE8C
:100D1800670A80BDAFF30080EA2E4454FB210940E6
:100D2800500A0020000080440000C84280B400AF90
:100D38000C4B1B881BB207EE903AB8EEE77ADFED52
:100D48000A7A87EE277ADFED097A27EE277ADFED30
:100D5800087A67EE277AB0EE670ABD465DF8047B2D
:100D6800704700BF500A0020000080440000C842BD
:100D78000000704280B500AF194B1B881AB2194B9E
:100D88001B881BB2D31A07EE903AB8EEE77ADFED6C
:100D9800167A87EE277ADFED157A27EE277ADFEDC8
:100DA800137A67EE277A17EE900A02F04FFE024692
:100DB8000B461046194608A3D3E9002302F09AFE11
:100DC80002460B461046194603F0A6F8034607EEFE
:100DD800903AB0EE670A80BDEA2E4454FB210940E0
:100DE800500A0020520A0020000080440000C84237
:100DF80080B500AF0220012100F04CFF0120012145
:100E080000F072FF434B4FF481621A60414B02229B
:100E18001A71404B03225A713E4B00229A713D4B86
:100E28000022DA713C483B4901F0B8FA3A480321FC
:100E3800012201F053FB38480A21012201F04EFB40
:100E4800364B1A68364BA3FB0213DB0C9BB2013BF3
:100E58009AB2344B1A80344B95221A80324B1B8835
:100E68001A46304B5A602F4B00221A812D4B002214
:100E78005A804FF080402B4901F02EFC2B4B93ED0C
:100E8800007ADFED2B7A87EE277A274B1B88013310
:100E980006EE903AF8EEE67A67EE277AFCEEE77A05
:100EA80017EE903A9AB2234B1A80234B60221A808D
:100EB800214B01225A801F4B1B881A461E4B9A60F1
:100EC8001D4B00229A814FF080401B4901F00CFD18
:100ED8004FF08040082101F045FE174B01225A804F
:100EE800144B1B881A46144B9A604FF080401249E5
:100EF80001F048FD4FF08040082101F03DFE4FF021
:100F08008040012101F070FC4FF08040012101F088
:100F180091FC80BDCC0B002000040240140100208D
:100F2800819F5E16C00B0020540A00202C0100206F
:100F38000000C842560A0020D40B002080B582B0B9
:100F480000AF87ED010A97ED017ADFED117A87EEA0
:100F5800277A104B1B88013306EE903AF8EEE67AB2
:100F680067EE277AFCEEE77A17EE903A9AB20A4BC8
:100F78001A804FF08040002101F0C2FD064B1B880B
:100F88004FF08040194601F0BDFD0837BD4680BDD1
:100F98000000C842540A0020560A002080B582B0DA
:100FA80000AF87ED010A97ED017ADFED117A87EE40
:100FB800277A104B1B88013306EE903AF8EEE67A52
:100FC80067EE277AFCEEE77A17EE903A9AB20A4B68
:100FD8001A80094B1B884FF08040194601F090FD9C
:100FE8004FF08040002101F08DFD0837BD4680BDDF
:100FF8000000C842540A0020560A002080B500AFFD
:101008004FF08040002101F07BFD4FF0804000212F
:1010180001F078FD80BD00BF80B588B000AF4FF407
:101028008020012100F060FE0820012100F032FE3E
:1010380023480821072201F051FA214809210722F3
:1010480001F04CFA4FF44073BB6002233B7300235A
:10105800BB730123FB7302237B7307F10803184852
:10106800194601F09BF9174840F22551012202F078
:1010780033FB4FF4E1333B610023BB820023FB8247
:1010880000233B830023BB830C237B8307F11003DE
:101098000C48194602F0BEF927233B710123FB7166
:1010A80000237B710023BB713B1D184600F0E4F957
:1010B8000448012102F036FA2037BD4680BD00BF42
:1010C800000C02400048004080B582B000AF0346E3
:1010D800FB7100BF0748802102F01CFB0346002B70
:1010E800F8D0FB799BB20348194602F04FFA08374B
:1010F800BD4680BD0048004080B582B000AF786032
:1011080012E000BF0C48802102F004FB0346002BCC
:10111800F8D07B681B78DBB20748194602F036FA2C
:101128007B685A1C7A601B787B681B78DBB2002BC3
:10113800E7D10837BD4680BD0048004080B588B07B
:1011480000AF87ED010A786802F080FC02460B4682
:1011580007F10C010846074903F028FD07F10C03C5
:101168001846FFF7C9FF0448FFF7C6FF2037BD46FA
:1011780080BD00BFC0A20008C4A2000898B500AF97
:101188001B4840F2277102F0CFFA0346002B12D019
:10119800184B1B68591C174A1160174AD35CDBB2FD
:1011A8001348194602F0F2F9124B1B682C2B02D98E
:1011B800104B00221A600E4840F2255102F0B4FA92
:1011C8000346002B13D00D4B1B681C46621C0B4BAF
:1011D8001A60074802F0DEF90346DAB2064B1A55E0
:1011E800064B1B682C2B02D9044B00221A6098BDB1
:1011F80000480040580A0020300100205C0A002006
:1012080080B584B000AF0220012100F06DFD174BBE
:101218001A68174BA3FB0213DB0C9BB2013B9BB272
:10122800BB8047F22F53BB600023BB810023FB80A8
:101238003B1D1048194601F04FFA1D233B7001234E
:10124800FB7001237B700123BB703B46184600F0FE
:1012580013F908480121012201F042FF0548012144
:1012680001F0E8FA1037BD4680BD00BF1401002028
:10127800819F5E160004004080B489B000AFF86119
:1012880087ED060AC7ED050A87ED041AC7ED031AAC
:1012980087ED022AC7ED012AFB69BA691A60FB6962
:1012A8007A695A60FB693A699A60FB69FA68DA6098
:1012B800FB69BA681A61FB697A685A62FB694FF080
:1012C80000025A61FB694FF000029A61FB694FF016
:1012D8000002DA61FB694FF000021A62FB694FF005
:1012E80000029A62FB694FF00002DA622437BD46B9
:1012F8005DF8047B704700BF80B52DED028B84B08C
:1013080000AFF86087ED020AC7ED010A97ED027A8F
:10131800D7ED017A77EE677AFB68C3ED0A7AFB6846
:1013280093ED0A7AFB68D3ED007A27EE278AF868EE
:1013380000F076F8F0EE407A78EE277AFB68C3ED95
:10134800077AF86800F040F8FB6893ED0A7AFB68C2
:10135800D3ED017A27EE277AFB68D3ED067A77EE8C
:10136800277AFB68C3ED0C7AFB6893ED0C7AFB686F
:10137800D3ED027AB4EEE77AF1EE10FA04DDFB68F9
:101388009A68FB68DA6213E0FB6893ED0C7AFB68F5
:10139800D3ED037AB4EEE77AF1EE10FA04D5FB68E0
:1013A800DA68FB68DA6203E0FB681A6BFB68DA62EA
:1013B800FB68DB6A07EE903AB0EE670A1037BD4665
:1013C800BDEC028B80BD00BF80B483B000AF7860F5
:1013D8007B6893ED077A7B68D3ED087A37EE277A36
:1013E8007B68D3ED097A27EE277AF6EE007A67EE66
:1013F800277A7B68C3ED057A7B68DA697B681A62AD
:101408007B6893ED057A7B68D3ED067A77EE277AC9
:101418007B68C3ED067A0C37BD465DF8047B7047E0
:1014280080B483B000AF78607B6893ED0B7A7B68FB
:10143800D3ED0C7A37EE677A7B68D3ED047A67EEE2
:10144800277AB0EE670A0C37BD465DF8047B704713
:10145800C8A4000800000020280A00202C0A002048
:10146800EC0B00204FF46D4340F0BF60CEF2000358
:1014780040F40030D8607047C37870B47BB9027804
:101488004FF461435109203102F01F020120CEF2CE
:10149800000300FA02F243F8212070BC70474FF4B1
:1014A8006D43CEF200034678DA6884780378D24335
:1014B800C2F30222C2F104010F25C9B206FA01F1F2
:1014C80045FA02F2C9B222400A4303F1604303F528
:1014D80061431201D2B283F8002302784FF46143CA
:1014E80002F01F0101205209CEF2000300FA01F1B7
:1014F80043F8221070BC704721F060414FF46D43EF
:1015080021F07F01CEF2000308439860704700BFC6
:101518004FF46D43CEF200031A6919B922EA0000AC
:101528001861704710431861704700BF4EF21003EE
:10153800CEF2000304281A680CBF42F0040222F01D
:1015480004021A60704700BF10B446F21002046823
:10155800C4F202020023904224F0010404600360F4
:1015680043608360C360036104BF4FF4C043C4F2A7
:1015780002034FF0210108BF3D22416108BF9A6074
:1015880000F0A28046F22803C4F20203984201BF89
:101598004FF4C043C4F202034FF474629A6000F03F
:1015A800938046F24003C4F20203984201BF4FF40D
:1015B800C043C4F202034FF474129A6000F08480AE
:1015C80046F25803C4F20203984201BF4FF4C043E5
:1015D800C4F202034FF074629A6075D046F2700349
:1015E800C4F2020398427BD046F28803C4F2020395
:1015F80098427ED046F2A003C4F20203984266D015
:1016080046F2B803C4F20203984201BF4FF4C04344
:10161800C4F202034FF03D52DA6055D046F210434F
:10162800C4F20203984201BF4FF4C843C4F2020354
:101638003D229A6048D046F22843C4F202039842F9
:1016480001BF4FF4C843C4F202034FF474629A60B6
:101658003AD046F24043C4F20203984201BF4FF425
:10166800C843C4F202034FF474129A602CD046F2B5
:101678005843C4F20203984201BF4FF4C843C4F26E
:1016880002034FF074629A601ED046F27043C4F2AF
:101698000203984237D046F28843C4F202039842C4
:1016A8003AD046F2A043C4F2020398423ED046F232
:1016B800B843C4F20203984201BF4FF4C843C4F2CE
:1016C80002034FF03D52DA605DF8044B70474FF467
:1016D800C043C4F202030022C2F23D02DA60F3E71B
:1016E8004FF4C043C4F202033D22C2F20002DA60A2
:1016F800EAE74FF4C043C4F202034FF47462C2F243
:101708000002DA60E0E74FF4C843C4F202033D2266
:10171800C2F20002DA60D7E74FF4C843C4F202030A
:101728004FF47462C2F20002DA60CDE74FF4C843A6
:10173800C4F202030022C2F23D02DA60C4E700BF2D
:10174800CA680B68D0F800C02DE9F0014F698E69AE
:10175800CD690C6A42EA030848EA07073E434B6A28
:101768000F6B35432C4344EA03028C6A42EA0403B4
:101778004A6B8C6B48F23F061343CFF21C06234397
:101788000CEA06061E4306604569CE6A0C694A687B
:101798008B6825F0070547EA060129434161446043
:1017A8008260BDE8F001C360704700BF002303609A
:1017B80043608360C360036143618361C361036203
:1017C80043628362C362036343638363704700BFFA
:1017D800036819B923F001030360704743F001035C
:1017E80003607047036819B923F400430360704726
:1017F80043F4004303607047036819B923F02003DA
:101808000360704743F020030360704741607047EE
:10181800406880B2704700BF036822B923F40023F0
:1018280003600161704743F400230360016170475E
:10183800036819B923F480230360704743F48023B5
:10184800036070470AB9C16070470161704700BF03
:101858000068C0F3C0407047006800F0010070479E
:10186800406900F03800704710B44FF4C84246F29F
:101878000F444FF4C043C4F20203C4F20204C4F29A
:101888000202A0428CBF104618468B004CBF43682A
:1018980003685DF8044B21F0F02121F08211194210
:1018A8000CBF00200120704710B44FF4C84246F224
:1018B8000F444FF4C043C4F20204C4F20202C4F25B
:1018C8000203A0428CBF1046184611F0005F21F0B9
:1018D800F02121F0821114BFC16081605DF8044BD2
:1018E800704700BF0B060CD54369AAB143F08003CB
:1018F800802943610FD0036801F01E01194301607C
:101908007047802907D0002AF5D1036801F01E012D
:1019180023EA01010160704723F0800380294361B5
:10192800F3D1704770B44FF4C04246F20F454FF4FC
:10193800C84421F0F023C4F20205C4F20204C4F240
:10194800020223F0C316A84288BF224696B1046853
:1019580004F01E0404EAD12489004CBF52681268BE
:1019680023F0821313EA020002D0201C18BF0120C2
:1019780070BC7047446904F08004EDE710B44FF47C
:10198800C84246F20F444FF4C043C4F20204C4F202
:101998000202C4F20203A0428CBF1046184611F09E
:1019A800005F21F0F02121F0821114BFC160816035
:1019B8005DF8044B704700BF4FF46053C4F2020354
:1019C8000022196841F0010119609A60186843F211
:1019D800100120F08470C2F2004120F480301860B9
:1019E8005960196821F480211960DA60704700BFD6
:1019F80043F60203C4F2020300221A7018707047FB
:101A080082B000234FF460520193C4F202021368BB
:101A18009B030FD4019B01330193019BB3F5A06F86
:101A2800F5D14FF46053C4F202031868C0F3404084
:101A380002B07047019B01330193019BF1E700BF9E
:101A48004FF46053C4F202031A6822F0F80242EA23
:101A5800C0001860704700BF0023C4F24723186015
:101A6800704700BF43F67003C4F202030022012846
:101A78001A701A7005D0042802D105221A7070470E
:101A880070471870704700BF4FF46863C4F247236B
:101A98001860704710B4019C40EA04605B08014379
:101AA8004FF46054C4F20204013B41EA821242EA54
:101AB800034363605DF8044B704700BF6023C4F2C2
:101AC80047231860704700BF4FF460530907C4F2FA
:101AD800020341EA8010C3F8840070476823C4F207
:101AE80047231860704700BF4C23C4F2472318608F
:101AF800704700BF4FF46053C4F202039A6822F0A3
:101B0800EC62114308439860704700BF4FF460537C
:101B1800C4F202039A6822F078421143084398609D
:101B2800704700BF4FF46053C4F202039A6822F072
:101B380003021043986070474FF46053C4F20203E5
:101B4800986800F00C0070474FF46053C4F2020329
:101B58009A6822F0F0021043986070474FF460537F
:101B6800C4F202039A6822F4E05210439860704766
:101B78004FF46053C4F202039A6822F4604242EAC6
:101B8800C0009860704700BF4FF46053C4F202036E
:101B980010B49A6802F00C02042A24D0082A28D02B
:101BA8004FF41051C0F2F40101604FF46052C4F2D6
:101BB800020240F260139468C2F20003C4F30314F3
:101BC8001C5DE14041609468C4F382241C5D21FAE5
:101BD80004F4846092685DF8044BC2F342329B5C63
:101BE800D940C16070474FF49051C0F27A0101604A
:101BF800DBE75C685A6814F4800F5C6815BF4FF423
:101C080090534FF41053C0F27A03C0F2F40302F079
:101C18003F02B3FBF2F14FF46053C4F20203C4F382
:101C280088145B68C3F30143013301FB04F15B00D3
:101C3800B1FBF3F10160B8E700F44073B3F5407FFE
:101C48000CD14FF46053C4F2020320F070419A683B
:101C580021F4407122F4F8120A439A604FF4605359
:101C6800C4F20203C0F30B001A6F104318677047E1
:101C780040F63C63C4F24723186070474FF464632E
:101C8800C4F24723186070474FF4AE73C4F2472379
:101C9800186070474FF46053C4F202031A6B19B905
:101CA80022EA00001863704710431863704700BFAA
:101CB8004FF46053C4F202035A6B19B922EA0000C8
:101CC8005863704710435863704700BF4FF4605320
:101CD800C4F202039A6B19B922EA000098637047AC
:101CE80010439863704700BF4FF46053C4F2020377
:101CF8001A6C19B922EA0000186470471043186476
:101D0800704700BF4FF46053C4F202035A6C19B90C
:101D180022EA00005864704710435864704700BFB7
:101D28004FF46053C4F202031A6919B922EA000099
:101D38001861704710431861704700BF4FF4605333
:101D4800C4F202035A6919B922EA000058617047BF
:101D580010435861704700BF4FF46053C4F2020348
:101D68009A6919B922EA000098617047104398618E
:101D7800704700BF4FF46053C4F202031A6A19B9DE
:101D880022EA00001862704710431862704700BFCB
:101D98004FF46053C4F202035A6A19B922EA0000E8
:101DA8005862704710435862704700BF4FF4605341
:101DB800C4F202031A6D19B922EA000018657047C7
:101DC80010431865704700BF4FF46053C4F2020314
:101DD8005A6D19B922EA00005865704710435865D2
:101DE800704700BF4FF46053C4F202039A6D19B9EB
:101DF80022EA00009865704710439865704700BF55
:101E08004FF46053C4F202031A6E19B922EA0000B3
:101E18001866704710431866704700BF4FF4605348
:101E2800C4F202035A6E19B922EA000058667047D4
:101E380010435866704700BF43F60D03C4F202030F
:101E48001A7819B922EA0000187070471043187000
:101E5800704700BF4309012B0ED0022B4FF460538B
:101E6800C4F2020300F01F000CBF1B6F5B6F23FA64
:101E780000F000F0010070474FF46053C4F2020311
:101E880000F01F001B6823FA00F000F00100704703
:101E98004FF46053C4F202035A6F42F080725A67DB
:101EA800704700BF4FF46053C4F20203DB68184266
:101EB8000CBF00200120704743F60E03C4F2020352
:101EC8001870704708B54FF480700121FFF760FF64
:101ED8004FF480700021BDE80840FFF759BF00BFEC
:101EE80042680B79F0B422F0407C0E68CD680C692A
:101EF8004F792CF4807C4CEA060646EA03264660B5
:101F080086682C434FF2FD738D68CCF2FF0344EAD8
:101F180005023340134343EA470383600B7DC26ADB
:101F2800013BDBB222F4700242EA0353C362F0BC05
:101F3800704700BF002301220275036003714371DB
:101F48008360C360036170474FF40C5203684168B3
:101F5800C4F2010230B48568C4685068194343F27A
:101F6800E0032943CFF6FC73214303400B4353603E
:101F780030BC70470023036043608360C3607047D0
:101F8800836819B923F001038360704743F00103A4
:101F980083607047436823F4400323F400731943B4
:101FA8004160704741628262704700BF436823F016
:101FB8001F031943416070474FF40C53C4F20103E7
:101FC8005A6818B922F400025A60704742F40002B5
:101FD8005A6070474FF40C53C4F201035A6818B999
:101FE80022F480025A60704742F480025A607047B7
:101FF800092970B401EB41041BD91E3CC5680726AA
:10200800A64003FA04F425EA06032343062AC3601C
:102018001AD90C2A02EB820224D9C46A413A1F2336
:10202800934024EA030301FA02F21A43C26270BC25
:10203800704705690726A64003FA04F425EA060353
:102048002343062A0361E4D8013A446B02EB820277
:102058001F23934024EA030301FA02F21A4342635E
:1020680070BC7047046B233A1F23934024EA030390
:1020780001FA02F21A43026370BC7047836843F0A6
:1020880080438360704700BF8068C0F3805070470A
:10209800836819B923F480638360704743F48063CD
:1020A80083607047836819B923F00203836070471F
:1020B80043F00203836070474368013923F46043A7
:1020C80043EA413141607047436819B923F400631A
:1020D8004360704743F4006343607047C06C80B24C
:1020E800704700BF42F20833C4F201031868704712
:1020F800836819B923F480738360704743F480734D
:1021080083607047836819B923F40073836070474C
:1021180043F40073836070474FF40C53C4F2010317
:102128005A6818B922F400525A60704742F40052B3
:102138005A607047092970B401EB410419D8056940
:102148000726A64003FA04F425EA0603234303619D
:10215800836B0232C3F30154121BD2B202EB820228
:102168001F24944023EA040391400B43836370BC0B
:1021780070471E3CC5680726A64003FA04F425EA02
:1021880006032343C360E3E7836B013923F4401359
:1021980043EA01518163704782B0002301930190A3
:1021A800019B19440191019B1A6002B0704700BF5E
:1021B800836823F47023194381607047836823F48C
:1021C8004013194381607047836843F48003836038
:1021D800704700BF8068C0F380507047436819B9E2
:1021E80023F480634360704743F48063436070471F
:1021F800436819B923F480534360704743F480530C
:102208004360704782B0002301930190019B2833FB
:1022180019440191019B186880B202B0704700BF51
:102228000123C9B203FA01F143681AB923EA01018B
:102238004160704719434160704700BF0368194205
:102248000CBF002001207047C9430160704700BFE0
:102258004368006810EA112007D0C9B2012202FAC7
:1022680001F119420CBF0020012070476FEA1121CB
:102278000160704708B50023C4F2020398423CD0BD
:102288004FF48063C4F20203984240D04FF40063D5
:10229800C4F20203984244D04FF44063C4F20203EC
:1022A800984248D04FF48053C4F2020398424CD06D
:1022B8004FF4A053C4F20203984250D04FF4C053D5
:1022C800C4F20203984254D04FF4E053C4F202031C
:1022D800984258D04FF40053C4F20203984200D0F9
:1022E80008BD4FF480700121FFF71AFD4FF480708C
:1022F8000021BDE80840FFF713BD01200146FFF7A4
:102308000FFD01200021BDE80840FFF709BD0220AC
:102318000121FFF705FD02200021BDE80840FFF775
:10232800FFBC04200121FFF7FBFC04200021BDE8CD
:102338000840FFF7F5BC08200121FFF7F1FC082051
:102348000021BDE80840FFF7EBBC10200121FFF792
:10235800E7FC10200021BDE80840FFF7E1BC202081
:102368000121FFF7DDFC20200021BDE80840FFF730
:10237800D7BC40200121FFF7D3FC40200021BDE855
:102388000840FFF7CDBC80200121FFF7C9FC802061
:102398000021BDE80840FFF7C3BC00BF00222DE9BB
:1023A800F00713460E6801274FF0030804E00133D5
:1023B800102B02F102022ED007FA03F404EA0605F4
:1023C800A542F4D1D0F8009091F804C008FA02F4BC
:1023D800E44304EA0909C0F80090D0F800900CFA28
:1023E80002FA0CF1FF3C5FFA8CFC4AEA0909BCF1DD
:1023F800010FC0F8009011D9C56891F807C02C40AA
:10240800C460C5680CFA02F401332C43102BC46075
:1024180002F10202D0D1BDE8F0077047D0F808A059
:1024280091F8059091F806C004EA0A0AC0F808A0D5
:10243800D0F808A009FA02F949EA0A09C0F8089090
:10244800D0F8049029EA0505456045680CFA03FCB4
:102458001FFA8CFC4CEA05054560CDE700234FF6D2
:10246800FF720260037143718371C371704700BFCB
:1024780082B04FF480330193019B0B430193019B7E
:10248800C361C161019BC361C3690193C3690193BE
:1024980002B07047036919420CBF00200120704741
:1024A800006980B2704700BF436919420CBF002021
:1024B80001207047406980B2704700BF01837047B0
:1024C800418370470AB9418370470183704700BF51
:1024D800416170474369594041617047CB0800EB3F
:1024E800830001F0070110B48900046A0F238B40B0
:1024F80024EA03030362036A5DF8044B8A4013432A
:102508000362704708B50023C4F2010398425BD008
:10251800B0F1804F62D04FF48063C4F20003984258
:1025280066D04FF40063C4F2000398426AD04FF4B7
:102538004063C4F2000398426ED04FF48053C4F253
:102548000003984272D04FF4A053C4F2000398429B
:1025580076D04FF48063C4F2010398427AD04FF4E6
:102568008043C4F2010398427ED04FF48843C4F2FA
:102578000103984200F084804FF49043C4F20103B1
:10258800984200F089804FF4C053C4F20003984287
:1025980000F08E804FF4E053C4F20003984200F03C
:1025A80091804FF40053C4F20003984200D008BD54
:1025B8004FF480700121FFF7DDFB4FF4807000219C
:1025C800BDE80840FFF7D6BB01200146FFF7E0FB56
:1025D80001200021BDE80840FFF7DABB01200146D1
:1025E800FFF7C8FB01200021BDE80840FFF7C2BB88
:1025F80002200121FFF7BEFB02200021BDE80840B0
:10260800FFF7B8BB04200121FFF7B4FB0420002129
:10261800BDE80840FFF7AEBB08200121FFF7AAFB81
:1026280008200021BDE80840FFF7A4BB10200121C5
:10263800FFF7A0FB10200021BDE80840FFF79ABB78
:1026480020200121FFF796FB20200021BDE808404B
:10265800FFF790BB02200121FFF79AFB022000211F
:10266800BDE80840FFF794BB4FF480300121FFF725
:102678008FFB4FF480300021BDE80840FFF788BB8E
:102688004FF400300121FFF783FB4FF400300021A5
:10269800BDE80840FFF77CBB4FF480200121FFF71D
:1026A80077FB4FF480200021BDE80840FFF770BB9E
:1026B80040200121FFF75EFB40200021BDE80840D3
:1026C800FFF758BB80200121FFF754FB8020002131
:1026D800BDE80840FFF74EBB70B400224FF4806499
:1026E800C4F201020388C4F20104904218BFA04258
:1026F8009BB214BF0022012208D04FF48064C4F2B8
:102708000004A04218BFB0F1804F23D14FF68F7557
:102718004C881D4045EA04034FF4A0564FF48055F9
:10272800C4F20005C4F20006B04218BFA8421FBF99
:102738000D894FF6FF441C4044EA05034D680C8898
:102748000380C56204850AB18B7A038601238382DC
:1027580070BC70474FF400654FF44064C4F2000544
:10276800C4F20004A04218BFA842D5D1CEE700BFEA
:1027780000234FF0FF32426003800381438083725D
:10278800704700BF01858282704700BF038823F02D
:1027980070031B041B0C194301807047416270478A
:1027A800C1627047406A7047008D80B2704700BFB1
:1027B800038829B923F002031B041B0C038070470C
:1027C8009BB243F002030380704700BF038829B916
:1027D80023F004031B041B0C038070479BB243F0D7
:1027E80004030380704700BF038829B923F08003DE
:1027F8001B041B0C038070479BB243F080030380CB
:10280800704700BF038823F008031B041B0C0380D8
:1028180003889BB219430180704700BF038823F4E3
:1028280040731B041B0C038003889BB2194301806F
:10283800704700BF038829B923F001031B041B0C50
:10284800038070479BB243F001030380704700BFC9
:102858002DE9F001048C8D89B1F802C00F8824F0AD
:1028680001042404240C0484028C8488038B4CEA1D
:10287800050C22F0020223F073034FF48066002552
:1028880012041B04C4F20106C4F20105120C1FFA5B
:102898008CFC1B0CA84218BFB0424CEA0202A4B23E
:1028A80043EA070317D14FF6F775B1F80EC0B1F830
:1028B80012800E8A8F88154045EA0C0C4FF6FB7281
:1028C80048EA06064FF6FF450CEA0202B6B2254072
:1028D8003A4346EA0504896884800383BDE8F00129
:1028E80041630284704700BF2DE9F003048C8D8991
:1028F800B1F802C00F8824F010042404240C0484C6
:10290800028C8488038B22F02002120423F4E6430D
:10291800120C42EA05121B044FF4806600251B0CBA
:10292800C4F20106C4F2010542EA0C1243EA072385
:10293800A84218BFB04292B2A4B29BB219D14FF6C6
:102948007F76B1F80E90B1F81080B1F804C04F8AC4
:1029580016404FF2FF3546EA09164FF6BF7225407A
:10296800324045EA880442EA0C1244EA870492B2EB
:10297800A4B2896884800383BDE8F003816302847C
:10298800704700BF2DE9F003048C8D89B1F802C0AF
:102998000F8824F480742404240C0484028C848812
:1029A800838B22F400721204120C42EA052223F0EF
:1029B80073034FF4806600251B04C4F20106C4F2B9
:1029C800010542EA0C221B0CA84218BFB04292B281
:1029D800A4B243EA070319D14FF2FF76B1F80E907B
:1029E800B1F81080B1F804C04F8A16404CF6FF7554
:1029F80046EA09264FF6FF322540324045EA0814D8
:102A080042EA0C2244EA071492B2A4B2896884808C
:102A18008383BDE8F003C16302847047F0B4048C7B
:102A28008D890F88B1F802C024F480542404240C42
:102A38000484028C8488838B22F400521204120CC2
:102A480042EA05324FF480660025C4F20105C4F25B
:102A58000106A84218BFB04223F4E64308BF0E8A15
:102A68008968A4B208BF4BF6FF754FEA034308BF55
:102A780025404FEA134308BF45EA861443EA072373
:102A880042EA0C3208BFA4B292B29BB2848083831C
:102A9800F0BC016402847047002303804380838074
:102AA80083608381C38103824382704730B4058C7D
:102AB8000124ADB28C404FF6F77325EA04040B40AD
:102AC8000484183073B10439C1F34E0148F6FF731A
:102AD8000C5823400B5012020B5892B21A430A505A
:102AE80030BC704749084FF68F7344582340435011
:102AF80043581A43425030BC704700BF4163704787
:102B080081637047C163704701647047038B23F08A
:102B180070031B041B0C194301837047038B23F4B8
:102B2800E0431B041B0C43EA01218BB2038370476B
:102B3800838B23F070031B041B0C1943818370479C
:102B4800838B23F4E0431B041B0C43EA01218BB263
:102B580083837047038B23F008031B041B0C194362
:102B680001837047038B23F400631B041B0C43EAA7
:102B780001218BB203837047838B23F008031B0466
:102B88001B0C194381837047838B23F400631B0458
:102B98001B0C43EA01218BB283837047038B23F01C
:102BA80004031B041B0C194301837047038B23F494
:102BB80080631B041B0C43EA01218BB2038370471B
:102BC800838B23F004031B041B0C19438183704778
:102BD800838B23F480631B041B0C43EA01218BB213
:102BE80083837047038B23F080031B041B0C19435A
:102BF80001837047038BC3F30E0343EA01218BB2B1
:102C080003837047838B23F080031B041B0C194339
:102C180081837047838BC3F30E0343EA01218BB290
:102C280083837047038C23F002031B041B0C194396
:102C380001847047038C23F008031B041B0C194301
:102C480001847047038C23F020031B041B0C43EA08
:102C580001118BB203847047038C23F080031B049B
:102C68001B0C43EA01118BB203847047038C23F4D5
:102C780000731B041B0C43EA01218BB203847047C9
:102C8800038C23F400631B041B0C43EA01218BB261
:102C980003847047038C23F400531B041B0C43EA82
:102CA80001318BB203847047038C10B401248C402B
:102CB8009BB223EA04030384038C5DF8044B8A4027
:102CC80013439BB203847047038C10B404248C40D4
:102CD8009BB223EA04030384038C5DF8044B8A4007
:102CE80013439BB2038470470B88F0B4002B32D097
:102CF800042B59D0082B4E88038C00F084808F88D1
:102D08000D89CC8823F480510904090C0184828B35
:102D1800038C22F4407223F4005312055B04120D55
:102D28005B0C42EA072243EA063342EA05329BB2C9
:102D380043F4805392B282830384838B23F44063E9
:102D48001B041B0C8383838B9BB243EA04239BB233
:102D58008383F0BC7047038C4E888D880F89CC889C
:102D680023F001010904090C0184028B038C22F071
:102D7800F3021204120C23F00A0342EA07121B049E
:102D880046F0010192B21B0C2A430B4302830384D1
:102D9800038B23F00C031B041B0C0383038B9BB2D4
:102DA80023430383F0BC7047038C4E888D880F89BA
:102DB800CC8823F010010904090C0184028B038CD0
:102DC80022F44072120523F0A003120D1B0442EAFC
:102DD80007321B0C43EA061392B242EA05229BB261
:102DE80043F0100392B202830384038B23F44063FD
:102DF8001B041B0C0383038B9BB243EA04239BB283
:102E08000383F0BC70478D880F89CC8823F48071C8
:102E18000904090C0184828B038C22F0F30223F449
:102E2800206312041B04120C1B0C42EA071243EA2B
:102E3800062392B29BB243F480732A4382830384AD
:102E4800838B23F00C031B041B0C8383838B9BB2A3
:102E5800234383837DE700BF002301228280038010
:102E68004380C380038170472DE9F0014A888B882D
:102E78000C88002A0CBF02260026012B14BF01274C
:102E88000227002C54D0058CB1F80880B1F806C090
:102E980025F010052D042D0C0584048B018C24F4D9
:102EA8004074240521F0A001240D090444EA0834E3
:102EB800090CA4B241EA021244EA032392B29BB27B
:102EC80042F0100203830284018B21F4406109045B
:102ED800090C0183038B9BB243EA0C239BB2038347
:102EE800018C21F001010904090C0184028B038C77
:102EF80022F0F302120423F00A03120C1B0442EA24
:102F080008121B0C43F0010392B21E4317430783B8
:102F18000684038B23F00C031B041B0C0383038B15
:102F28009BB243EA0C0CA0F818C0BDE8F00170474A
:102F3800048CB1F808C0CD8824F001010904090CFB
:102F48000184018B048C21F0F3010904090C24F09D
:102F58000A0441EA0C11240442F0010289B2240C4B
:102F680014430B4303830484038B23F00C031B04D7
:102F78001B0C0383038B9BB22B430383038C23F02B
:102F880010031B041B0C0384028B038C22F4407275
:102F9800120523F0A003120D1B0442EA0C321B0C8D
:102FA80043F0100392B243EA061642EA0727078362
:102FB8000684038B23F440631B041B0C0383038BDD
:102FC8009BB243EA0525ADB20583BDE8F001704721
:102FD800406B7047806B7047C06B7047006C7047E0
:102FE800038B23F00C031B041B0C0383038B9BB282
:102FF80019430183704700BF038B23F440631B040C
:103008001B0C0383038B9BB243EA01218BB203831E
:10301800704700BF838B23F00C031B041B0C8383B6
:10302800838B9BB219438183704700BF838B23F442
:1030380040631B041B0C8383838B9BB243EA0121EF
:103048008BB28383704700BFB1F802C00B888A89AE
:10305800F0B48F88CE880D894C894CEA03033B4332
:1030680033432B43234313439BB2A0F84430F0BCB3
:10307800704700BF0023038043808380C38003819F
:1030880043818381704700BFB0F8443021B9C3F34E
:103098000E03A0F8443070476FEA43436FEA534386
:1030A8009BB2A0F844307047838829B923F0040301
:1030B8001B041B0C838070479BB243F0040383807E
:1030C800704700BF838829B923F001031B041B0C38
:1030D800838070479BB243F001038380704700BF31
:1030E80083899BB21AB923EA010181817047194388
:1030F8008181704781827047038A19420CBF002082
:1031080001207047C94389B201827047038A8289C6
:1031180011420CBF0020012019420CBF002000F012
:1031280001007047C94389B2018270470A43A0F879
:103138004820704783899BB21AB923EA010181812B
:103148007047194381817047838829B923F00803A0
:103158001B041B0C838070479BB243F008038380D9
:10316800704700BF038923F007031B041B0C03816E
:10317800704700BF038923F070031B041B0C19431D
:10318800018103899BB243F007030381704700BFA5
:10319800602970B427D0068C26F001063604360C58
:1031A8000684058B048C25F0F3052D0424F00A040D
:1031B8002D0C240445F00105240C45EA031344F0C2
:1031C80001049BB2224303830284038923F0700322
:1031D8001B041B0C0B43038103899BB243F00703B9
:1031E800038170BC7047048C24F010042404240C60
:1031F8000484058B048C25F4407524F0A0042D0567
:1032080024042D0D240C45F4807544F0100445EA7F
:10321800033344EA02129BB292B203830284D4E7D6
:1032280010B4048942EA0323E4B223439BB219434E
:10323800018103895DF8044B23F077031B041B0C01
:1032480043F077030381704710B4048942EA0323EB
:10325800E4B223439BB21943018103895DF8044B0F
:103268009BB243F480430381704700BF038923F076
:1032780070031B041B0C194301817047838823F0DA
:1032880070031B041B0C838083889BB219438180C5
:10329800704700BF038923F007031B041B0C03813D
:1032A80003899BB219430181704700BF038923F04A
:1032B80080031B041B0C038103899BB21943018102
:1032C800704700BF10B40489E4B221430A4342EABC
:1032D80003239CB204815DF8044B704770B40589E0
:1032E800048B068C24F4407426F0220624F0030490
:1032F8003604360C25F00705240432432D04240C2B
:103308002D0C44F4807442EA0313294344F0010469
:103318009EB201810483068470BC7047838829B9F2
:1033280023F080031B041B0C838070479BB243F07F
:1033380080038380704700BFA0F85010704700BF1B
:1033480008B54FF48053C4F20103984228D04FF4D3
:103358008843C4F2000398422CD04FF49043C4F23F
:103368000003984232D04FF49843C4F200039842C5
:1033780038D04FF4A043C4F2000398423ED04FF433
:10338800A053C4F20103984200D008BD20200121B7
:10339800FEF7FEFC20200021BDE80840FEF7F8BC3F
:1033A80010200121FEF7F4FC10200021BDE80840A0
:1033B800FEF7EEBC4FF400300121FEF7DBFC4FF4C2
:1033C80000300021BDE80840FEF7D4BC4FF480204F
:1033D8000121FEF7CFFC4FF480200021BDE8084012
:1033E800FEF7C8BC4FF400200121FEF7C3FC4FF4E0
:1033F80000200021BDE80840FEF7BCBC4FF4801057
:103408000121FEF7B7FC4FF480100021BDE8084009
:10341800FEF7B0BC028ACB8822F440521204F0B501
:10342800120C04461A430F898E8848890D468989EB
:103438002282A38923F4B05347EA060223F00C033F
:1034480002431B0492B21B0C1343A381A38A23F4E7
:1034580040731B041B0C85B00B43A3826846FEF720
:1034680093FBA6890298039B4FF4A0514FF4805216
:10347800C4F20101C4F20102944218BF8C4232B274
:1034880018BF0346002A2A68A08903EB8303B4BF48
:103498005200920003EB8303B3FBF2F348F21F528E
:1034A800C5F2EB12A2FB035100B2642549090028BA
:1034B80001FB1533B5BFDB001B0132333233B5BF17
:1034C800A2FB0302A2FB0352C2F34212C2F343124D
:1034D8000901114389B2218105B0F0BD00234FF4E1
:1034E80016510C22016042818380C380038183814D
:1034F800704700BF30B40A884D888C88038AC98811
:103508002A43224323F470630A431B0492B21B0C20
:103518001343038230BC70470023038043808380B9
:10352800C3807047838929B923F400531B041B0CFB
:10353800838170479BB243F400538381704700BF77
:10354800038B03F47F430383038B9BB219430183EB
:10355800704700BF838919B9C3F30E03838170478D
:103568006FEA43436FEA53439BB28381704700BFBE
:10357800838A29B923F400631B041B0C83827047D8
:103588009BB243F400638382704700BFC1F3080114
:10359800818070478088C0F308007047038A23F051
:1035A8000F031B041B0C0382038A9BB2194301827D
:1035B800704700BF838929B923F002031B041B0C41
:1035C800838170479BB243F002038381704700BF39
:1035D800838923F400631B041B0C838183899BB2BA
:1035E80019438181704700BF038A23F020031B041D
:1035F8001B0C0382038A9BB219430182704700BFE8
:10360800038A29B923F480431B041B0C03827047E7
:103618009BB243F480430382704700BF83899BB207
:1036280043F0010383817047838A29B923F0080393
:103638001B041B0C838270479BB243F008038382F0
:10364800704700BF038BDBB20383038B9BB243EA53
:1036580001210183704700BF838A29B923F0200321
:103668001B041B0C838270479BB243F020038382A8
:10367800704700BF838A29B923F010031B041B0C71
:10368800838270479BB243F010038382704700BF68
:10369800838A23F004031B041B0C8382838A9BB256
:1036A80019438182704700BF838A29B923F0020336
:1036B8001B041B0C838270479BB243F00203838276
:1036C800704700BF838A9BB21AB923EA010181823D
:1036D800704719438182704701F01F0310B4C1F38A
:1036E80042110124A14204FA03F308BF0C3003D0AD
:1036F80002290CBF1030143004682AB924EA0303E5
:1037080003605DF8044B7047234303605DF8044B86
:10371800704700BF038819420CBF00200120704782
:10372800C94389B201807047C1F3421330B401F034
:103738001F020124012B04FA02F416D0022B0CBF3D
:10374800028A828A92B2224003880125090A05FA70
:1037580001F19BB219420CBF00200120002A0CBFC6
:10376800002000F0010030BC7047828992B22240EC
:10377800EAE700BF090A012303FA01F1C94389B244
:103788000180704781F0004102E000BF83F00043F0
:1037980030B54FEA41044FEA430594EA050F08BFE4
:1037A80090EA020F1FBF54EA000C55EA020C7FEAA8
:1037B800645C7FEA655C00F0E2804FEA5454D4EB25
:1037C8005555B8BF6D420CDD2C4480EA020281EAEF
:1037D800030382EA000083EA010180EA020281EA27
:1037E8000303362D88BF30BD11F0004F4FEA013179
:1037F8004FF4801C4CEA113102D0404261EB410188
:1038080013F0004F4FEA03334CEA133302D052420D
:1038180063EB430394EA050F00F0A780A4F10104C9
:10382800D5F1200E0DDB02FA0EFC22FA05F2801803
:1038380041F1000103FA0EF2801843FA05F35941E9
:103848000EE0A5F120050EF1200E012A03FA0EFC68
:1038580028BF4CF0020C43FA05F3C01851EBE37192
:1038680001F0004507D54FF0000EDCF1000C7EEBAF
:1038780000006EEB0101B1F5801F1BD3B1F5001FED
:103888000CD349085FEA30004FEA3C0C04F101040C
:103898004FEA445212F5800F80F09A80BCF1004F35
:1038A80008BF5FEA500C50F1000041EB045141EAB7
:1038B800050130BD5FEA4C0C404141EB010111F4B8
:1038C800801FA4F10104E9D191F0000F04BF014663
:1038D8000020B1FA81F308BF2033A3F10B03B3F141
:1038E80020020CDA0C3208DD02F1140CC2F10C02D1
:1038F80001FA0CF021FA02F10CE002F11402D8BF2F
:10390800C2F1200C01FA02F120FA0CFCDCBF41EAFA
:103918000C019040E41AA2BF01EB0451294330BDC9
:103928006FEA04041F3C1CDA0C340EDC04F11404A6
:10393800C4F1200220FA04F001FA02F340EA03007D
:1039480021FA04F345EA030130BDC4F10C04C4F1C3
:10395800200220FA02F001FA04F340EA03002946A3
:1039680030BD21FA04F0294630BD94F0000F83F4ED
:10397800801306BF81F480110134013D4EE77FEAD0
:10398800645C18BF7FEA655C29D094EA050F08BF1C
:1039980090EA020F05D054EA000C04BF19461046FD
:1039A80030BD91EA030F1EBF0021002030BD5FEA41
:1039B800545C05D14000494128BF41F0004130BD69
:1039C80014F580043CBF01F5801130BD01F00045BD
:1039D80045F0FE4141F470014FF0000030BD7FEA30
:1039E800645C1ABF194610467FEA655C1CBF0B462B
:1039F800024650EA013406BF52EA033591EA030F42
:103A080041F4002130BD00BF90F0000F04BF002139
:103A1800704730B54FF4806404F132044FF000056C
:103A28004FF0000150E700BF90F0000F04BF0021E5
:103A3800704730B54FF4806404F1320410F000454B
:103A480048BF40424FF000013EE700BF42004FEA46
:103A5800E2014FEA31014FEA02701FBF12F07F43C3
:103A680093F07F4F81F06051704792F0000F14BFC0
:103A780093F07F4F704730B54FF4607401F0004504
:103A880021F0004120E700BF50EA010208BF70475B
:103A980030B54FF000050AE050EA010208BF704750
:103AA80030B511F0004502D5404261EB41014FF4B9
:103AB800806404F132045FEA915C3FF4DCAE4FF0BD
:103AC80003025FEADC0C18BF03325FEADC0C18BFA4
:103AD800033202EBDC02C2F1200300FA03FC20FAF5
:103AE80002F001FA03FE40EA0E0021FA02F1144442
:103AF800C1E600BF70B54FF0FF0C4CF4E06C1CEA57
:103B080011541DBF1CEA135594EA0C0F95EA0C0FCB
:103B180000F0DEF82C4481EA030621EA4C5123EA3E
:103B28004C5350EA013518BF52EA033541F480116D
:103B380043F4801338D0A0FB02CE4FF00005E1FB20
:103B480002E506F00042E0FB03E54FF00006E1FB6A
:103B580003569CF0000F18BF4EF0010EA4F1FF04AD
:103B6800B6F5007F64F5407404D25FEA4E0E6D41ED
:103B780046EB060642EAC62141EA55514FEAC520FE
:103B880040EA5E504FEACE2EB4F1FD0C88BFBCF57A
:103B9800E06F1ED8BEF1004F08BF5FEA500E50F12B
:103BA800000041EB045170BD06F0004646EA0101F1
:103BB80040EA020081EA0301B4EB5C04C2BFD4EB23
:103BC8000C0541EA045170BD41F480114FF0000E1C
:103BD800013C00F3AB8014F1360FDEBF002001F08A
:103BE800004170BDC4F10004203C35DA0C341BDC04
:103BF80004F11404C4F1200500FA05F320FA04F0D6
:103C080001FA05F240EA020001F0004221F0004109
:103C180010EBD37021FA04F642EB06015EEA430E7C
:103C280008BF20EAD37070BDC4F10C04C4F12005AC
:103C380000FA04F320FA05F001FA04F240EA02005F
:103C480001F0004110EBD37041F100015EEA430E30
:103C580008BF20EAD37070BDC4F1200500FA05F250
:103C68004EEA020E20FA04F301FA05F243EA0203CF
:103C780021FA04F001F0004121FA04F220EA0200DE
:103C880000EBD3705EEA430E08BF20EAD37070BD24
:103C980094F0000F0FD101F00046400041EB010104
:103CA80011F4801F08BF013CF7D041EA060195F0E6
:103CB800000F18BF704703F00046520043EB0303A0
:103CC80013F4801F08BF013DF7D043EA060370478D
:103CD80094EA0C0F0CEA135518BF95EA0C0F0CD098
:103CE80050EA410618BF52EA4306D1D181EA0301DE
:103CF80001F000414FF0000070BD50EA410606BFD8
:103D08001046194652EA430619D094EA0C0F02D11C
:103D180050EA013613D195EA0C0F05D152EA033661
:103D28001CBF104619460AD181EA030101F000417F
:103D380041F0FE4141F470014FF0000070BD41F0C8
:103D4800FE4141F4780170BD70B54FF0FF0C4CF4A2
:103D5800E06C1CEA11541DBF1CEA135594EA0C0FC1
:103D680095EA0C0F00F0A7F8A4EB050481EA030E0E
:103D780052EA03354FEA013100F088804FEA0333F5
:103D88004FF0805545EA131343EA12634FEA0222C3
:103D980045EA111545EA10654FEA00260EF0004184
:103DA8009D4208BF964244F1FD0404F5407402D2D6
:103DB8005B084FEA3202B61A65EB03055B084FEA67
:103DC80032024FF480104FF4002CB6EB020E75EB64
:103DD800030E22BFB61A754640EA0C005B084FEA8C
:103DE8003202B6EB020E75EB030E22BFB61A754609
:103DF80040EA5C005B084FEA3202B6EB020E75EB54
:103E0800030E22BFB61A754640EA9C005B084FEACB
:103E18003202B6EB020E75EB030E22BFB61A7546D8
:103E280040EADC0055EA060E18D04FEA051545EAC7
:103E380016754FEA06164FEAC30343EA52734FEA70
:103E4800C2025FEA1C1CC0D111F4801F0BD141EAE9
:103E580000014FF000004FF0004CB6E711F4801F4E
:103E680004BF01430020B4F1FD0C88BFBCF5E06F2E
:103E78003FF6AFAEB5EB030C04BFB6EB020C5FEA3E
:103E8800500C50F1000041EB045170BD0EF0004E93
:103E98004EEA113114EB5C04C2BFD4EB0C0541EAC5
:103EA800045170BD41F480114FF0000E013C90E6C2
:103EB80045EA060E8DE60CEA135594EA0C0F08BF86
:103EC80095EA0C0F3FF43BAF94EA0C0F0AD150EA85
:103ED80001347FF434AF95EA0C0F7FF425AF104618
:103EE80019462CE795EA0C0F06D152EA03353FF440
:103EF800FDAE1046194622E750EA410618BF52EABD
:103F080043067FF4C5AE50EA41047FF40DAF52EA90
:103F180043057FF4EBAE12E74FEA4102B2F1E0430A
:103F280024BFB3F5001CDCF1FE5C0DD901F0004C98
:103F38004FEAC0024CEA5070B2F1004F40EB8300E8
:103F480008BF20F00100704711F0804F21D113F114
:103F58003872BCBF01F00040704741F480114FEA4D
:103F68005252C2F11802C2F1200C10FA0CF320FAD6
:103F780002F018BF40F001004FEAC1234FEAD323F3
:103F880003FA0CFC40EA0C0023FA02F34FEA43035D
:103F9800CCE77FEA625307D150EA01331EBF4FF0E6
:103FA800FE4040F44000704701F0004040F0FE4001
:103FB80040F40000704700BF844641EA000313F054
:103FC80003036DD1403A41D351F8043B40F8043B18
:103FD80051F8043B40F8043B51F8043B40F8043BDB
:103FE80051F8043B40F8043B51F8043B40F8043BCB
:103FF80051F8043B40F8043B51F8043B40F8043BBB
:1040080051F8043B40F8043B51F8043B40F8043BAA
:1040180051F8043B40F8043B51F8043B40F8043B9A
:1040280051F8043B40F8043B51F8043B40F8043B8A
:1040380051F8043B40F8043B51F8043B40F8043B7A
:1040480051F8043B40F8043B403ABDD2303211D31A
:1040580051F8043B40F8043B51F8043B40F8043B5A
:1040680051F8043B40F8043B51F8043B40F8043B4A
:10407800103AEDD20C3205D351F8043B40F8043B1A
:10408800043AF9D2043208D0D2071CBF11F8013B18
:1040980000F8013B01D30B8803806046704700BFDE
:1040A800082A13D38B078DD010F003038AD0C3F1ED
:1040B8000403D21ADB071CBF11F8013B00F8013BCF
:1040C80080D331F8023B20F8023B7BE7043AD9D38E
:1040D800013A11F8013B00F8013BF9D20B78037063
:1040E8004B7843708B7883706046704740EA010CC8
:1040F8001CF0070F23D1BDF1100DCDE90245CDE924
:1041080000676FF000064FF0000700BFF0E80223D9
:10411800F1E80245A24282FA46FCA7FA86FC08BFEB
:10412800BCF1000F40F0D780AB4283FA46FCA7FAF7
:1041380086FC08BFBCF1000F40F0CA80E6E710F02B
:10414800030C21D020F0030050F8042B5FEACC7C4C
:1041580008D00FD211F801CB5FFA92F3B3EB0C0C35
:1041680010D17BB111F801CB5FFAA2F3B3EB0C0CC1
:1041780008D13BB111F801CB5FFAB2F3B3EB0C0CE9
:1041880000D10BB960467047BDF1100DCDE902456D
:10419800CDE900676FF000064FF0000711F0030C3F
:1041A8002DD110F0040F0DD050F8042B51F8044B0A
:1041B800A24282FA46FCA7FA86FC08BFBCF1000FAF
:1041C80040F0898011F0040F9FD051F8045B00BFC4
:1041D800F0E80223AA4282FA46FCA7FA86FC08BF46
:1041E800BCF1000F71D1F1E80245A34283FA46FC05
:1041F800A7FA86FC08BFBCF1000F63D1E8E721F0FD
:104208000301BCF1020F1ED03BDA51F8045B00BF7A
:1042180050F8043B4FEA152583FA46FCA7FA86FCBA
:10422800B7EB0C2F03EA162208BFAA424DD151F86A
:10423800045BBCF1000F82EA03034FEA056208BF82
:1042480093423CD1E4E751F8045B00BF50F8043BCB
:104258004FEA154583FA46FCA7FA86FCB7EB0C4FE4
:1042680003EA164208BFAA422FD151F8045BBCF1F9
:10427800000F82EA03034FEA054208BF93421ED1AA
:10428800E4E751F8045B00BF50F8043B4FEA1565BA
:1042980083FA46FCA7FA86FCB7EB0C6F03EA1662B2
:1042A80008BFAA4211D151F8045BBCF1000F82EAA1
:1042B80003034FEA052208BF934200D1E4E719BA85
:1042C80012BA0AE019BA22BA07E011BA2ABA04E007
:1042D80019BA2ABA01E011BA22BA9CFA8CF0DDE9BF
:1042E8000067DDE902451DF1100D38B1B0FA80F024
:1042F800C0F1180021FA00F122FA00F201209142DF
:1043080098BF8041704700BF4FF0FF3C06E000BFF8
:104318004FF0010C02E000BF4FF0010C4DF804CD46
:104328004FEA410C7FEA6C5C4FEA430C18BF7FEA06
:104338006C5C1BD001B050EA410C0CBF52EA430C34
:1043480091EA030F02BF90EA020F0020704710F1B4
:10435800000F91EA030F58BF994208BF90422CBF43
:10436800D8176FEAE37040F0010070474FEA410C3C
:104378007FEA6C5C02D150EA013C07D14FEA430C5A
:104388007FEA6C5CD6D152EA033CD3D05DF8040BCB
:10439800704700BF8446104662468C4619466346FD
:1043A80000E000BF01B5FFF7B7FF002848BF10F1D4
:1043B800000F01BD4DF808EDFFF7F4FF0CBF012019
:1043C80000205DF808FB00BF4DF808EDFFF7EAFF95
:1043D80034BF012000205DF808FB00BF4DF808ED50
:1043E800FFF7E0FF94BF012000205DF808FB00BF45
:1043F8004DF808EDFFF7CEFF94BF012000205DF8CF
:1044080008FB00BF4DF808EDFFF7C4FF34BF0120DB
:1044180000205DF808FB00BF4FEA410212F50012C8
:1044280015D211D56FF47873B3EB625212D94FEAF3
:10443800C12343F0004343EA505311F0004F23FADD
:1044480002F018BF404270474FF00000704750EA32
:10445800013005D111F0004008BF6FF000407047EF
:104468004FF00000704700BF4BB942B9002908BFA0
:10447800002802D04FF0FF31084600F03BB882B068
:10448800EC462DE9005000F01DF8DDF804E002B01C
:104498000CBC70472DE97043069E14461D468046A5
:1044A800894600F029F804FB01F300FB0533A4FB5F
:1044B80000451D44B8EB040469EB0505C6E9004551
:1044C800BDE870832DE97043069E144680468946F0
:1044D8001D4600F05DF900FB05F504FB0153A0FB48
:1044E80004451D44B8EB040469EB0505C6E900451D
:1044F800BDE87083704700BF00292DE9F00FC0F2B6
:104508009F800024002BC0F29680154606460F4671
:10451800002B3ED18A4257D9B2FA82F34BB1C3F18C
:10452800200201FA03F720FA02F29D40174300FA2D
:1045380003F6290CB7FBF1F2330C01FB127CA8B28D
:1045480043EA0C4700FB02F3BB4209D97F1902F189
:10455800FF3C80F00181BB4240F2FE80023A2F44CA
:10456800FF1AB7FBF1F3B6B201FB137146EA01413A
:1045780000FB03F0884208D9491903F1FF3780F09E
:10458800ED80884240F2EA80023B43EA024200237F
:1045980003E08B420AD900231A461046194614B183
:1045A800404261EB4101BDE8F00F7047B3FA83F870
:1045B800B8F1000F40F084808B4202D3824200F2AF
:1045C800DE8000230122E8E712B90123B3FBF2F5EC
:1045D800B5FA85F2002A39D17F1B280C1FFA85FC11
:1045E8000123B7FBF0F1320C00FB117742EA0747D1
:1045F8000CFB01F2BA4207D97F1901F1FF3802D248
:10460800BA4200F2C1804146BF1AB7FBF0F2B6B217
:1046180000FB127046EA00400CFB02FC844507D9F7
:10462800401902F1FF3702D2844500F2AB803A46C6
:1046380042EA0142B1E7E443524263EB430364E7D1
:10464800404261EB41014FF0FF345BE79540C2F116
:10465800200327FA03F1280C26FA03F39740B1FB4D
:10466800F0F81F433B0C00FB18111FFA85FC43EAC6
:1046780001410CFB08F38B4206FA02F608D94919E6
:1046880008F1FF3279D28B4277D9A8F10208294480
:10469800C91AB1FBF0F3BFB200FB131147EA014797
:1046A8000CFB03F2BA4207D97F1903F1FF3160D23C
:1046B800BA425ED9023B2F44BF1A43EA084390E747
:1046C800C8F1200203FA08FC25FA02F343EA0C0CAD
:1046D8004FEA1C4921FA02F301FA08F720FA02F21C
:1046E800B3FBF9F1174309FB11333A0C1FFA8CFBA2
:1046F80042EA03430BFB01FA9A4505FA08F008D988
:1047080013EB0C0301F1FF3235D29A4533D9023944
:104718006344CAEB0303B3FBF9F209FB1233BFB2DC
:1047280047EA03470BFB02F9B94508D917EB0C0711
:1047380002F1FF331BD2B94519D9023A674442EA5C
:104748000145A5FB0001C9EB07078F424FF00003A5
:104758000AD305D02A4620E7624601E73B4614E71C
:1047680006FA08F68642F5D26A1E002315E71A46AD
:10477800E5E70B46A0E71146CBE7904688E74346B6
:1047880042460AE7023A53E702392F443CE700BFA2
:104798002DE9F00F144605460E46002B43D18A42F8
:1047A80053D9B2FA82F757B1C7F1200620FA06F6B4
:1047B80001FA07F302FA07F41E4300FA07F5210C81
:1047C800B6FBF1F22B0C01FB1267A0B243EA0746D5
:1047D80000FB02F3B34209D9361902F1FF3780F022
:1047E800F680B34240F2F380023A2644F61AB6FB4A
:1047F800F1F3ADB201FB136145EA014100FB03F09F
:10480800884208D9091903F1FF3680F0E28088420E
:1048180040F2DF80023B43EA024200231046194679
:10482800BDE8F00F70478B424AD8B3FA83F6002EE2
:104838004DD18B4202D3824200F2D680002301225E
:1048480010461946BDE8F00F704712B90124B4FBB1
:10485800F2F4B4FA84F2002A7CD1091B260CA7B220
:104868000123B1FBF6F02A0C06FB101142EA0141C4
:1048780007FB00F28A4207D9091900F1FF3C02D26E
:104888008A4200F2C3806046891AB1FBF6F2ADB2E3
:1048980006FB121145EA014507FB02F7AF4208D9AA
:1048A8002C1902F1FF3180F09680A74240F29380E4
:1048B800023A42EA004210461946BDE8F00F704736
:1048C80000231A4610461946BDE8F00F7047C6F196
:1048D800200522FA05F4B3401C434FEA144821FA94
:1048E80005F301FA06F720FA05F5B3FBF8FC2F43A8
:1048F80008FB1C333D0C1FFA84FA45EA03430AFB04
:104908000CF9994502FA06FB04D91B190CF1FF3280
:104918006DD39446C9EB0303B3FBF8F508FB1533D5
:10492800BFB247EA03470AFB05F8B84504D93F195F
:1049380005F1FF3361D31D4645EA0C4CACFB0B2354
:10494800C8EB07079F424FF0000549D345D06246A0
:104958002B4663E79440C2F1200321FA03FC260C9E
:1049680020FA03F301FA02F5BCFBF6F843EA050165
:104978000B0C06FB18CCA7B243EA0C4C07FB08F358
:10498800634500FA02F509D91CEB040C08F1FF3263
:104998003AD2634538D9A8F10208A444C3EB0C0CF9
:1049A800BCFBF6F389B206FB13CC41EA0C4107FBCA
:1049B80003F28A4207D9091903F1FF3022D28A4249
:1049C80020D9023B2144891A43EA084349E73A4679
:1049D8000CE733461FE70A466BE7B0409042B6D271
:1049E8000CF1FF32002319E73346324616E79945A2
:1049F8008FD9ACF1020C23448CE7B8459BD9023D12
:104A0800274499E70346DEE79046C7E70238214482
:104A18003AE700BF002100F004B80C4B5B58435044
:104A280004310B480B4B42189A42FFF4F6AF0A4A7E
:104A380000F003B8002342F8043B084B9A42FFF405
:104A4800F9AFFBF73FFDFBF799FC7047C8A40008D6
:104A580000000020280A00202C0A0020EC0B00206F
:104A6800FFF7FEBF08B50021044601F047FB044BE1
:104A78001868C36B03B19847204605F017FD00BFBF
:104A8800CCA2000870B50F4E0F4D761BB61007D09C
:104A9800043D0024013455F8043F9847A642F9D153
:104AA8000A4E0B4D761B05F0F5FCB61008D0043DF8
:104AB8000024013455F8043F9847A642F9D170BD47
:104AC80070BD00BFBCA40008BCA40008C4A40008B2
:104AD800BCA40008F0B4840743D0541E002A3ED07A
:104AE800CDB2034603E0621E002C38D0144603F80A
:104AF800015B9A07F7D1032C2AD9CDB245EA0525DF
:104B08000F2C45EA054515D9A4F110073F0903F113
:104B1800100606EB07161A46156055609560D560B5
:104B28001032B242F8D104F00F040137032C03EB22
:104B380007130DD91E462246043A032A46F8045B99
:104B4800FAD8221F22F003020432134404F00304AB
:104B58002CB1C9B21C4403F8011BA342FBD1F0BC21
:104B6800704714460346C6E70CB4F0B59DB022ACB6
:104B78000E4654F8042B029123464FF4027E6FF040
:104B880000454FF6FF7702A906960194ADF814E0A8
:104B980004950795ADF8167000F02EF8029B0022D8
:104BA8001A701DB0BDE8F04002B070470EB4F0B501
:104BB8009CB021AB0F4953F8042B019305466FF0C5
:104BC8000044086802954FF402774FF6FF7602A971
:104BD8000695ADF8147004940794ADF8166000F0CB
:104BE8000BF8029B00221A701CB0BDE8F04003B01D
:104BF800704700BF980500202DE9F04FC5B09146D9
:104C08000C930891099002F003FB0068119003F0DF
:104C18009FFA089C1490A3891A0603D52369002BD0
:104C280001F092809FED967B8DED127B002334ACD2
:104C38000D93049429932893169315930A93279414
:104C4800264699F80030002B00F0F880252B00F05C
:104C5800F58009F1010201E0252B04D01446013248
:104C68002378002BF8D1C9EB04057DB1289B299A3C
:104C7800C6F8009001332A44072B756029922893BF
:104C880000F3C28008360A9828440A902378002B3B
:104C980000F0C280002394F801808DF87F301A4616
:104CA8000B93059304F101094FF0FF34069409F1C1
:104CB8000109A8F12003582B00F2CC83DFE813F098
:104CC8006F02CA03CA037602CA03CA03CA03CA0325
:104CD800CA03CA0319036903CA039D00C000CA03B3
:104CE8007D02840284028402840284028402840293
:104CF80084028402CA03CA03CA03CA03CA03CA03D2
:104D0800CA03CA03CA03CA0395027403CA03740315
:104D1800CA03CA03CA03CA036D03CA03CA037800D5
:104D2800CA03CA03CA03CA03CA035900CA03CA0387
:104D3800B402CA03CA03CA03CA03CA03CA03CA031A
:104D4800CA03CA03CA033C034D0374037403740300
:104D580004034D03CA03CA030D03CA03CA027C0035
:104D68002603AA03CA03DE02CA035F00CA03CA03F2
:104D7800E400DDF814C04CF0100CCDF814C0059C0C
:104D8800A20600F15B83059CE30600F1E585DDF8EA
:104D980014C01CF0400F00F0DF85DDF830C0BCF80F
:104DA80000400CF1040C00250123CDF830C092E03E
:104DB800059D45F010050595DDF814C01CF020038D
:104DC80040F03183DDF814C01CF0100240F0BD85BE
:104DD800DDF814C01CF0400300F0B785DDF830C0E2
:104DE800BCF800400CF1040C13460025CDF830C087
:104DF80071E00B9C0C9364420B94059D45F00405EF
:104E0800059599F8008052E70998089927AA03F0B0
:104E1800CFF940B934AE36E7299B23B109980899F0
:104E280027AA03F0C5F9089C0A98A38913F0400F34
:104E380018BF4FF0FF3045B0BDE8F08F4C4625E76E
:104E480099F80080B8F12A0F09F1010001F01B81DF
:104E5800A8F13003092B98BF002101F28B8010F8CC
:104E6800018B01EB810103EB4101A8F13003092B10
:104E7800F5D941EAE171069181461AE7AFF300805E
:104E88000000000000000000059DA14C1694AF062C
:104E98008DF87F2040F1D081DDF830C00CF1070398
:104EA80023F0070303F108040C94D3E90045DDF867
:104EB80014C01CF0010F00F0638454EA050000F0F0
:104EC8005F8430234CF0020C8DF880308DF881809F
:104ED800CDF814C002234FF0000A8DF87FA0069980
:104EE800002905DBDDF814C02CF0800CCDF814C0C7
:104EF80054EA050040F0C6820699002940F0C282B3
:104F0800002B40F03984DDF814C01CF0010F00F0CC
:104F1800338444AF302307F8413D049DEC1BDDF892
:104F280018C000256445A8BFA446CDF81CC010953C
:104F3800BAF1000F02D0079D01350795059B13F0C4
:104F480002030E9302D0079D02350795DDF814C0C1
:104F58001CF0840CCDF83CC040F091820B9DDDF82C
:104F68001CC0CCEB050BBBF1000F40F38882BBF1F2
:104F7800100F2999289ADFF8A0A12CDD1797304641
:104F880057461025CA46089EA146099C06E0ABF183
:104F9800100BBBF1100F00F1080017DD01321031C2
:104FA800072A2991289207604560F0DD204631469E
:104FB80027AA03F0FDF800287FF435AFABF1100BFA
:104FC800BBF1100F2999289A34A8E7DC4C46D14642
:104FD800BA46179F064601320BEB010C072ACDF89B
:104FE800A4C0289286E8000C00F31B849DF87FA0DB
:104FF8000836BAF1000F0FD0289B01330CF1010CD1
:105008000DF17F010122072BCDF8A4C0289386E873
:10501800060000F3998308360E9B73B1289B013371
:105028000CF1020C20A90222072BCDF8A4C028936A
:1050380086E8060000F3948308360F9D802D00F063
:10504800CB82069DC4EB050ABAF1000F3BDDBAF12D
:10505800100F289B2F4D2BDD069432464FF0100B76
:105068002E466146099C089D06E0AAF1100ABAF18D
:10507800100F02F1080217DD01331031072B2991B7
:10508800289382E84008F0DD2046294627AA03F045
:105098008FF800287FF4C7AEAAF1100ABAF1100FF2
:1050A8002999289B34AAE7DC069C35468C46164687
:1050B8000133D444072BCDF8A4C0289386E82004F4
:1050C80000F336830836059DED0500F12582289BFF
:1050D80037600133A444072BCDF8A4C0746028932B
:1050E80000F310830836059C630748D50B9D079885
:1050F8002C1A002C43DD102C289BDFF81CA02ADD7D
:10510800574610256246DDF82080DDF824A00AE025
:1051180004A30008D0A2000824A30008103C102C07
:1051280006F1080615DD01331032072B2992289362
:1051380037607560F2DD5046414627AA03F038F81B
:1051480000287FF470AE103C102C299A289B34AEAE
:10515800E9DC9446BA460133A444072BCDF8A4C031
:105168002893C6F800A0746009DD0998089927AA51
:1051780003F01EF800287FF456AEDDF8A4C00A9CA0
:1051880007980B9DA842ACBF241864190A94BCF177
:10519800000F40F0C3820023289334AE51E599F8FC
:1051A8000080002A7FF483AD202280E5059D45F02C
:1051B8000105059599F8008079E5059D45F080057C
:1051C800059599F8008072E50024A8F130030B9446
:1051D800214619F8018B01EB810103EB4101A8F18C
:1051E8003003092BF5D90B9163E5DDF814C08DF870
:1051F8007F204CF0100CCDF814C0059CA30640F19C
:10520800B2800C9DE91D21F00701D1E90023083186
:105218000C9114461D46002A73F10000C0F28B83DE
:105228009DF87FA001235AE6059DB74C8DF87F2095
:10523800AF0616943FF530AE059DED0640F160844B
:10524800DDF830C0DCF800400CF1040CCDF830C0BB
:1052580000252CE6DDF814C08DF87F201CF0200F07
:1052680000F040840C9C21680A9CE5172B460C9D95
:10527800224604350C95C1E90023E2E40C9C27681A
:105288004FF0000A8DF87FA0251D002F00F0F5854E
:10529800069C002C3846C0F28B855146224602F007
:1052A80063FA002800F05A86069C0C95C01BA042A1
:1052B800B8BF044624EAE475CDF818A0CDF840A09C
:1052C80007959DF87FA033E6DDF814C04CF0400C3C
:1052D800CDF814C099F80080E9E499F80080B8F195
:1052E8006C0F4B4600F08F84059D45F01005059521
:1052F800DDE40C9C0C9D24680B94002C05F1040340
:10530800FFF677AD0C9399F80080D0E40C9ADDF89D
:1053180014C07E48146816903023151D4FF0780885
:105328004CF0020C8DF880300C95CDF814C0002597
:105338008DF881800223CEE50C9A0C9D12688DF8B9
:10534800A8200023012404359A4607940C958DF86B
:105358007F30069310932AAFF0E5059C8DF87F20E7
:10536800A3063FF54EAFDDF814C01CF0100F40F057
:10537800D282059C670640F1CE82DDF830C0BCF9C8
:1053880000400CF1040CE51722462B46CDF830C03E
:1053980041E799F800802B2289E4059D45F008052E
:1053A800059599F8008082E4059C8DF87F202507F3
:1053B80040F18D830C9DEB1D23F0070393ED007BDB
:1053C8008DED127B03F1080CCDF830C09DED120B6A
:1053D80002F082FE012840F06183DDE9120100221B
:1053E8000023FEF7F1FF002840F075859DF87FA0A7
:1053F800DDF814C0464F474B002503242CF0800CE1
:1054080007940695CDF814C0B8F1470FD8BF1F46CA
:1054180010958DE5DDF814C04CF0200CCDF814C0C3
:1054280099F8008043E40C9CE31D23F0070303F183
:1054380008050C95D3E9004500234CE50C9DEB1DB0
:1054480023F0070303F1080CD3E90045CDF830C079
:10545800012340E58DF87F20B8F1000F3FF4DCAC64
:1054680000234FF0010C9A46CDF81CC08DF8A88097
:105478008DF87F300693109364462AAF5EE5DDF819
:10548800A4C0B6E5012B00F0EC80022B0DF1CF0390
:1054980018D1DDF858C0194604F00F00220942EA75
:1054A80005720F462B091CF80010397052EA0300E8
:1054B80014461D4607F1FF31EED1049DCDE91A23AC
:1054C800EC1B2CE5E00840EA457004F00702E90807
:1054D800303250EA010C1F461A7004460D4603F19B
:1054E800FF33EFD1059CCDE91801E007394640F1BB
:1054F800C180302A00F0BE80049D1F463023EC1B7B
:1055080001F8013C0BE500BFF0A2000804A3000865
:10551800E4A20008E0A20008B8F1650F40F3AD80EE
:10552800DDE9120100220023CDF80CC0FEF742FF8E
:10553800DDF80CC0002800F02681289BAA4A3260BA
:1055480001330CF1010C0122072BCDF8A4C02893DC
:10555800726000F3FB820836219B0D9CA34203DB9B
:10556800059DEC077FF5BFAD289B149D119C346009
:105578000133AC44072BCDF8A4C07560289300F321
:105588004C8308360D9D6C1E002C7FF7ACAD102C9B
:10559800289B964D40F3978110276246DDF82480BA
:1055A800DDF820A004E00836103C102C40F38A8176
:1055B80001331032072B2992289386E8A000F2DDE8
:1055C8004046514627AA02F0F3FD00287FF42BAC91
:1055D800299A289B34AEE7E70B9D0798C0EB050A8C
:1055E800BAF1000F7FF72DADBAF1100F289B7F4D50
:1055F8002BDD0E9432464FF0100B2E466146099C67
:10560800089D06E0AAF1100ABAF1100F02F108028B
:1056180017DD01331031072B2991289382E84008C0
:10562800F0DD2046294627AA02F0C2FD00287FF4B3
:10563800FAABAAF1100ABAF1100F2999289B34AADB
:10564800E7DC0E9C35468C4616460133D444072BBE
:10565800CDF8A4C0289386E8200400F31282083607
:10566800EFE4002D08BF0A2C80F0388144AF3034B5
:1056780007F8414D049DEC1B51E40D9C012C289C1E
:1056880040F3D58101340CF101030122072C376066
:1056980029932894726000F3DB810836DDF8508086
:1056A800119D356001349844149DCDF8A480072CD1
:1056B8002894756000F3D8810836DDE912010022CC
:1056C8000023FEF777FE0D9D002840F0B9806B1E81
:1056D800013401379844072C2894CDF8A48037600A
:1056E800736000F3E2800836DDF854C0159D01347C
:1056F800C44423AB072CCDF8A4C0289486E828001E
:105708007FF7F0AC0998089927AA02F051FD002804
:105718007FF489ABDDF8A4C034AEE4E409980899B5
:1057280027AA02F045FD00283FF435ADFFF77BBB03
:105738000998089927AA02F03BFD00287FF473AB6B
:10574800DDF8A4C034AEBEE40998089927AA02F08F
:105758002FFD00287FF467ABDDF8A4C034AE5BE40E
:105768000998089927AA02F023FD00287FF45BAB6B
:10577800DDF8A4C034AE60E4069C34AFFFF7CFBBBD
:105788000223FFF7A8BB219B002B40F3EB810D9C64
:10579800109DDDF834A0AC42A8BF2C46002CBA44BA
:1057A8000BDD289B37600133A444072BCDF8A4C038
:1057B8007460289300F328830836109D24EAE47463
:1057C8002C1B002C40F3DB80102C289B074D40F34A
:1057D800B18106974FF010082F4662462546DDF83E
:1057E80024B0089C09E000BF20A30008D0A200084C
:1057F8000836103D102D40F3998101331032072BE4
:105808002992289386E88001F2DD5846214627AA86
:1058180002F0CEFC00287FF406AB299A289B34AE10
:10582800E7E70998089927AA02F0C2FC00287FF444
:10583800FAAA9DF87FA0DDF8A4C034AEFFF7D9BB63
:105848006F1E002F7FF750AF102FB54D23DD434655
:105858004FF0100ADDF82480DDF820B004E0103F96
:10586800102F06F1080615DD01341033072C299393
:10587800289486E82004F2DD4046594627AA02F01B
:1058880097FC00287FF4CFAA103F102F299B289C53
:1058980034AEE9DC98460134B844072CCDF8A4802E
:1058A800289486E8A0007FF71EAF0998089927AAD0
:1058B80002F07EFC00287FF4B6AADDF8A480289CBC
:1058C80034AE11E794460133A444072BCDF8A4C0A5
:1058D8002893356074607FF705AC13E70DF1CF0BA3
:1058E800204629460A220023FEF7BEFD30328BF8F7
:1058F8000020204629460A220023FEF7B5FD04466B
:105908000D4654EA050C5F460BF1FF3BE8D1049DB8
:10591800EC1BFFF704BB0C9DDDF830C02C68E517C5
:1059280022462B460CF1040C002A73F10000CDF836
:1059380030C0BFF675AC4FF02D0A644265EB4505E3
:105948008DF87FA00123FFF7CABA0C9D2C68043597
:105958000C950025FFF7BFBA0C9D2C6804350C95F3
:1059680001230025FFF7B7BA0998089927AA02F07A
:105978001FFC00287FF457AADDF8A4C034AE109DA0
:10598800219C2F440D9DAC4242DB059DE9073FD485
:105998000D98C7EB0A05041BAC42B8BF2546002D7D
:1059A8000BDD289B37600133AC44072BCDF8A4C02E
:1059B8007560289300F35282083625EAE575641B62
:1059C800002C7FF790AB102C289B554D7FF77BAFB1
:1059D80010276246DDF82480DDF820A004E00836B0
:1059E800103C102C7FF76EAF01331032072B299231
:1059F800289386E8A000F2DD4046514627AA02F027
:105A0800D7FB00287FF40FAA299A289B34AEE7E732
:105A1800289B119D3560149D75600133AC44072B9C
:105A2800CDF8A4C0289300F3FB810836B0E7059DA4
:105A3800EA073FF527AE01340CF101080123072CD2
:105A4800CDF8A4802894376073607FF74CAE2CE7BC
:105A58000998089927AA02F0ABFB00287FF4E3A96C
:105A6800299B289C34AE19E60998089927AA02F0C0
:105A78009FFB00287FF4D7A9DDF8A480289C34AECA
:105A88001BE60998089927AA02F092FB00287FF4E0
:105A9800CAA9DDF8A4C034AEFFF7D3BA9DED120B46
:105AA80002F01AFB002840F0C480059D1D4F1E4BD4
:105AB8009DF87FA00690032425F08005079405959E
:105AC8001090B8F1470FD8BF1F46FFF731BA0C9CAA
